:100000000C94D4000C94FC000C94FC000C94FC00A8
:100010000C94FC000C94FC000C94FC000C94FC0070
:100020000C94FC000C94FC000C943A080C94A90865
:100030000C94FC000C94FC000C94FC000C94FC0050
:100040000C94FC000C94FC000C94FC000C94FC0040
:100050000C94FC000C94FC000C94FC000C94F00735
:100060000C94FC000C94FC000C94FC000C94FC0020
:100070000C94FC000C94FC000C94FC000C94FC0010
:100080000C94FC000C94FC000C94FC000C94FC0000
:100090000C94FC000C94FC000C94FC000C94FC00F0
:1000A0000C94FC000C94FC000C94FC00080B000267
:1000B0000202000009040000010202000005240001
:1000C0001001052401010104240206052406000193
:1000D0000705810310004009040100020A00000026
:1000E00007050202400000070583024000000403E8
:1000F000090412010002EF0201404F1B06920001A9
:1001000001020301537061726B46756E005370619A
:10011000726B46756E2050726F204D6963726F006E
:1001200000000000250028002B002E0031000000F8
:100130000000240027002A002D00300000000000ED
:100140002300260029002C002F00040404040403CB
:100150000405020202020403020202020606060667
:10016000060604040202020404040802011040808E
:10017000401020408040800802040180402010028E
:1001800001108010204040200000000200090F00F4
:1001900000030401000C000000000000000000004B
:1001A000000000000000020B11241FBECFEFDAE0B8
:1001B000DEBFCDBF12E0A0E0B1E0E8E0F5E202C0B2
:1001C00005900D92AC37B107D9F724E0ACE7B2E067
:1001D00001C01D92A437B207E1F710E0C4EDD0E0F2
:1001E00004C02197FE010E943A11C33DD107C9F70F
:1001F0000E94F90C0C9482120C940000FC01809176
:10020000C102882311F13FB7F89482E08093E9009E
:100210002091F200822F90E01816190614F481E064
:1002200090E0882339F0289844E64093C00240913A
:10023000F1004083222339F02091F200211103C004
:100240002BE62093E8003FBF08958FEF9FEF0895BE
:1002500081508F3008F047C0E82FF0E0EE5CFE4F91
:100260000C943A114F015301410147014B017301B5
:100270007301730156015C01600164016A0173013D
:100280006E01809180008F77809380000895809127
:1002900080008F7DF9CF80918000877FF5CF84B576
:1002A0008F7784BD089584B58F7DFBCF80919000BA
:1002B0008F77809390000895809190008F7DF9CF83
:1002C00080919000877FF5CF8091C0008F778093D9
:1002D000C00008958091C0008F7DF9CF8091C20049
:1002E000877F8093C2000895CF93DF93282F30E05B
:1002F000F901E857FE4F8491F901E759FE4FD49177
:10030000F901E65BFE4FC491CC23A1F081110E945C
:100310002801EC2FF0E0EE0FFF1FE45CFE4FA591EB
:10032000B491EC91ED2381E090E009F480E0DF915D
:10033000CF91089580E090E0FACFCF93DF9390E0E3
:10034000FC01E759FE4F2491865B9E4FFC0184918E
:100350008823C9F090E0880F991FFC01E25DFE4FF1
:10036000A591B491FC01E05EFE4FC591D49161115D
:100370000DC09FB7F8948C91209582238C9388812F
:10038000282328839FBFDF91CF910895623051F4D5
:100390009FB7F8943C91822F809583238C93E881BA
:1003A0002E2BEFCF8FB7F894EC912E2B2C938FBF81
:1003B000EACF3FB7F8948091BC029091BD02A09122
:1003C000BE02B091BF0226B5A89B05C02F3F19F011
:1003D0000196A11DB11D3FBFBA2FA92F982F8827C5
:1003E000BC01CD01620F711D811D911D42E0660FA0
:1003F000771F881F991F4A95D1F708958F929F9272
:10040000AF92BF92CF92DF92EF92FF924B015C01CD
:100410000E94D9016B017C010E94D9016C197D09F0
:100420008E099F09683E734081059105A8F321E07C
:10043000821A9108A108B10888EEC80E83E0D81E80
:10044000E11CF11C81149104A104B10429F7FF906F
:10045000EF90DF90CF90BF90AF909F908F900895D6
:100460002FB7F8946091B8027091B9028091BA02E6
:100470009091BB022FBF08954091A3025091A40216
:100480002091A1023091A20242175307B4F4909137
:10049000E8009570E1F39091E80092FD19C0809317
:1004A000F1008091A3029091A40201968F73992785
:1004B000892B19F48EEF8093E8008091A30290912C
:1004C000A40201969093A4028093A30281E0089570
:1004D00080E00895DF92EF92FF920F931F93CF93E6
:1004E000DF93D82E8A01EB017B01E40EF51ECE15B9
:1004F000DF0559F0D7FE12C0FE0184910E943C0234
:1005000021968111F4CF0FEF1FEFC801DF91CF913A
:100510001F910F91FF90EF90DF9008958881EECFAB
:100520002FB7F89487708093E9009091E800892FA5
:10053000807295FF04C09091F20080E4891B2FBF68
:1005400008957F928F929F92AF92BF92CF92DF9247
:10055000EF92FF920F931F93CF93DF93C82E8B01DF
:100560007A018091C102811110C08FEF9FEFDF915E
:10057000CF911F910F91FF90EF90DF90CF90BF90A0
:10058000AF909F908F907F9008958091A70280FFF9
:1005900005C08091E00082608093E000CE2DDF2DC9
:1005A000D12C8AEFB82E8C2D8770982E8C2D8072CE
:1005B000882E8C2D8074782E9AE3A92E209719F41A
:1005C000DD2009F452C08C2D0E94900281110AC0D6
:1005D000BA94BB2051F261E070E080E090E00E94AC
:1005E000FE01ECCF8C171D0611F00CF08C2F9FB77D
:1005F000F8949092E9002091E80025FD02C09FBF89
:10060000DDCF282F30E0C21BD30B882029F081508A
:10061000A0F01092F100FBCFF801C7FC0AC0815096
:1006200050F041914093F100FACF44914093F10092
:1006300031968150D0F7020F131FDD2021F0A092D8
:10064000E800D12CDCCF8091E80085FD07C0A092A6
:10065000E800DD24D394209791F2F3CF209779F628
:10066000772069F2A092E800CACF5D9884E6809373
:10067000A602C7017CCF615030F02091F100FC014F
:1006800020830196F8CF289884E68093C0020895CD
:100690008091990281110DC082E08093950284E0DF
:1006A00080939602109298021092970281E08093B4
:1006B000990285E992E008950F931F93CF93DF93FA
:1006C0001F92CDB7DEB782E0898342E450E06CEA46
:1006D00070E080E80E946A020E944803DC011296E2
:1006E0000D911C910115110589F0D801ED91FC9136
:1006F0000280F381E02DBE016F5F7F4FC801099535
:1007000097FD04C0F80100851185ECCF89810F9019
:10071000DF91CF911F910F910895CF93DF93EC015B
:1007200080911201882331F083E00E94A102181603
:10073000190634F081E090E09B838A8380E090E0AA
:10074000DF91CF910895CF93DF931F92CDB7DEB79E
:100750006983DC01ED91FC910280F381E02D41E0A1
:1007600050E0BE016F5F7F4F09950F90DF91CF91F1
:10077000089583E08093E9008091F200882319F0C6
:100780008AE38093E800089583E00E94900290E05D
:100790000895CF93DF931F92CDB7DEB7FC01848518
:1007A000958597FD08C02FEF3FEF358724870F9081
:1007B000DF91CF910895CE0101960E94FE0001972E
:1007C00019F4898190E0F3CF8FEF9FEFF0CF0F9373
:1007D0001F93CF93DF931F92CDB7DEB78C01FC013F
:1007E0008485958597FF0BC0CE0101960E94FE007F
:1007F000019771F4898190E0F80195878487F80169
:10080000848595850F90DF91CF911F910F91089569
:100810008FEF9FEFF1CFFC018485958597FD0BC08D
:100820009FB7F89482E08093E9008091F2009FBF27
:1008300090E0019608959FB7F89482E08093E900D4
:100840008091F2009FBF90E00895DC01FB011296B9
:100850002C911297848195812817190641F4918172
:100860008081813A31F49D7F81E0913009F080E010
:1008700008958132E1F79B3029F482811F968C9391
:1008800081E008959A3099F7828150968C93F8CF41
:10089000DC01FB0188E4808389E4818384E4828332
:1008A0001D969C911D979F709F5B93831D968D91C4
:1008B0009C9124E0969587952A95E1F78F708F5B40
:1008C000848385E00895EF92FF920F931F93CF9357
:1008D000DF93FB012081213889F52381223271F5D4
:1008E000DC0112964C91248135814217130631F5B3
:1008F0008C01FC01C385D485F12CE12C209791F06B
:100900004C815D816A817B818E81811180E80E94AA
:100910006A028F3F980759F0E80EF91E0990D881B6
:10092000C02DECCF81E0D8011F968C93C701DF91D9
:10093000CF911F910F91FF90EF90089590E080E08C
:10094000F6CFCF93DF93CDB7DEB769970FB6F894A4
:10095000DEBF0FBECDBFFC01DB018C918F5F8C939E
:100960009E012D5F3F4F8DE0D9011D928A95E9F7D9
:1009700029E0298384E08A8391E09D8383E08E834C
:100980002A8721E22B879C879D879F8722E2288BDD
:1009900027E02B8B25E02C8B8E8B20E430E0388FEA
:1009A0002F8B998F82818B8395858685998B8A8BF6
:1009B000838180688D8B49E150E0BE016F5F7F4F7E
:1009C00080E00E946A0269960FB6F894DEBF0FBEFF
:1009D000CDBFDF91CF910895CF93DF9380918D02AA
:1009E000811167C081E0809380028093810226E8B4
:1009F00032E030938302209382021092850210929B
:100A000084022FE131E030937D0220937C0210922A
:100A100088021092870210928A02109289028093B3
:100A20008B0280938C0281EC809386020E944803A3
:100A3000FC01818190918002482F490F5527551F55
:100A4000483051059CF5A281B381109709F52CE738
:100A500032E033832283208120937E0280937F02C1
:100A600080918102820F808320918202A22FB09117
:100A700083028A2F821B8917C8F481813D91C82F78
:100A8000D0E0C050DF4F38838F5F8183F2CFD90130
:100A900018962D913C91199721153105C1F72CE736
:100AA00032E019963C932E931897D5CF81E080932E
:100AB0008D028CE792E0DF91CF910895CF92DF9283
:100AC000EF92FF920F931F93CF93DF93D901E7012A
:100AD0006901F8012017310714F06801F90190E06D
:100AE00080E06623B9F1CA014C155D050CF4C6011E
:100AF0009F018E179F070CF49C010A171B0734F403
:100B0000CF01821B930B9C012C0D3D1D0D2C000C65
:100B1000EE08FF08032E000C440B550B2C193D0961
:100B20004E095F09AEEFBFEF0E94EA109F01FF0F71
:100B3000440B550B2C193D094E095F090E94CB103F
:100B4000DA01C9018F5F9F47A109B10988839983A1
:100B500082E090E0DF91CF911F910F91FF90EF9095
:100B6000DF90CF900895FC0101900020E9F73197C4
:100B7000AF01481B590BBC0182EC92E00C948D0331
:100B80008F929F92AF92BF920F931F93CF93DF9359
:100B9000CDB7DEB7A1970FB6F894DEBF0FBECDBFBD
:100BA00019A2423008F44AE08E010F5D1F4F842ED7
:100BB000912CB12CA12CA50194010E94F510E62FD7
:100BC000B901CA01EA30F4F4E05DD801EE938D0179
:100BD000232B242B252B79F790E080E0109719F038
:100BE000CD010E94B305A1960FB6F894DEBF0FBEEB
:100BF000CDBFDF91CF911F910F91BF90AF909F908C
:100C00008F900895E95CE1CFCF93DF93682F70E078
:100C100090E080E04AE00E94C005EC0189E491E0A8
:100C20000E94B3058C0F9D1FDF91CF9108950C9406
:100C3000B3054F925F926F927F928F929F92AF9285
:100C4000BF92CF92DF92EF92FF920F931F93CF93B9
:100C5000DF93CDB7DEB76C014DB65EB63C012FE435
:100C6000620E711CF30180812DB73EB7281B31093C
:100C70000FB6F8943EBF0FBE2DBF8DB79EB701963D
:100C80004C01F601A68CB12CDC0190E080E0F6016D
:100C90008A159B054CF4228D338DF901E80FF91F5D
:100CA00020812D930196F3CF878D882341F186898A
:100CB000978928E097FD09C068E671E00E94261137
:100CC0006DE270E00E942611262FF601808D918D35
:100CD00068E097FD08C068E671E00E9426116DE2A9
:100CE00070E00E942611F401EA0DFB1D30E1639FC4
:100CF000B0011124262B2083C50101965C017401EB
:100D0000EA0CFB1CF60104A115A122A133A140812C
:100D1000518160A16170C6010E945E05A80EB91ED6
:100D20007401EA0CFB1CF60100A511A526A137A150
:100D30004281538160A166956170C6010E945E0583
:100D4000A80EB91E7401EA0CFB1CF60104A515A53A
:100D500022A533A54481558160A162FB662760F915
:100D6000C6010E945E05A80EB91E7401EA0CFB1CA8
:100D7000F60100A911A926A537A54681578160A1D2
:100D800063FB662760F9C6010E945E05A80EB91EC6
:100D90007401EA0CFB1CF60104A915A922A933A9C8
:100DA0004085518560A162956170C6010E945E0513
:100DB000A80EB91E7401EA0CFB1CF60100AD11ADC2
:100DC00026A937A94285538560A165FB662760F98E
:100DD000C6010E945E05A80EB91E7401EA0CFB1C38
:100DE000F60104AD15AD22AD33AD4685578561A141
:100DF0006170C6010E945E05A80EB91E7401EA0C5E
:100E0000FB1CF601E05CFF4F00811181F60126AD6D
:100E100037AD4485558561A166956170C6010E9414
:100E20005E05A80EB91E7401EA0CFB1CF601EC5B12
:100E3000FF4F00811181329720813181F601408975
:100E4000518961A162FB662760F9C6010E945E05B7
:100E5000A80EB91E7401EA0CFB1CF601E85BFF4FFB
:100E600000811181329720813181F60142895389B5
:100E700061A163FB662760F9C6010E945E058A0DC9
:100E80009B1D7401E80EF91EF601E45BFF4F008123
:100E90001181329720813181F6014489558961A100
:100EA00062956170C6010E945E050E94EC045C01BF
:100EB000F3014081F601E25BFF4F808150E07A014F
:100EC000FFEFEF1AFF0A2DB73EB72E193F090FB6F5
:100ED000F8943EBF0FBE2DBF0DB71EB70F5F1F4F5B
:100EE000EDB7FEB78183B401C80101960E94791263
:100EF000F5018381A701B80180640E94A1020FB6A9
:100F0000F8945EBE0FBE4DBEDF91CF911F910F9141
:100F1000FF90EF90DF90CF90BF90AF909F908F9019
:100F20007F906F905F904F900895CF92DF92EF92F5
:100F3000FF920F931F93E62FE695E695E695DC0169
:100F40005A962D913C915B97E20FF32FF11D67703C
:100F500001E010E020E030E06801790104C0CC0C31
:100F6000DD1CEE1CFF1C6A95D2F720812C29208302
:100F70005C962C91222341F01F910F91FF90EF90EE
:100F8000DF90CF900C9419061F910F91FF90EF9076
:100F9000DF90CF900895FC01858D681700F5A62F8E
:100FA000A695A695A695828D938DA80FB92FB11DF4
:100FB000962F977041E050E060E070E004C0440F6D
:100FC000551F661F771F9A95D2F740958C9148233D
:100FD0004C93848D882319F0CF010C941906089541
:100FE0001F920F920FB60F9211242F933F938F935E
:100FF0009F93AF93BF938091B8029091B902A09153
:10100000BA02B091BB023091B70223E0230F2D3713
:1010100058F50196A11DB11D2093B7028093B80227
:101020009093B902A093BA02B093BB028091BC0224
:101030009091BD02A091BE02B091BF020196A11D88
:10104000B11D8093BC029093BD02A093BE02B093E9
:10105000BF02BF91AF919F918F913F912F910F90C0
:101060000FBE0F901F90189526E8230F0296A11D22
:10107000B11DD2CF1F920F920FB60F9211248F93F2
:101080009F938091E1009091E100937F9093E10024
:1010900083FF0FC01092E90091E09093EB00109253
:1010A000EC0092E39093ED001092C10298E09093CF
:1010B000F00082FF22C093E09093E9009091F2004B
:1010C000992319F09AE39093E8009091A60299234E
:1010D00041F09091A60291509093A602911101C007
:1010E0005D9A9091C002992341F09091C002915075
:1010F0009093C002911101C0289A84FF18C080917A
:10110000E2008E7E81608093E2008091E1008F7E1C
:101110008093E1008091A7028E7E80618093A70278
:101120009F918F910F900FBE0F901F90189580FF89
:10113000F7CF8091E2008E7E80618093E200809103
:10114000E1008E7E8093E1008091A7028E7E816017
:10115000E5CF1F920F920FB60F921124CF92DF921C
:10116000EF92FF920F931F932F933F934F935F93B1
:101170006F937F938F939F93AF93BF93EF93FF935F
:10118000CF93DF93CDB7DEB76C97DEBFCDBF1092A4
:10119000E9008091E80083FF25C068E0CE01459614
:1011A0000E943B0382EF8093E8008D8987FF39C05E
:1011B0009091E80090FFFCCF982F907609F034C111
:1011C0009E894F89588D2F89F88C911131C08038B4
:1011D00061F58091A8028093F1001092F1008EEFEA
:1011E0008093E8006C960FB6F894DEBF0FBECDBFBB
:1011F000DF91CF91FF91EF91BF91AF919F918F912F
:101200007F916F915F914F913F912F911F910F911E
:10121000FF90EF90DF90CF900F900FBE0F901F9038
:1012200018959EEF9093E800C7CF1092F100D5CFAC
:10123000913059F48111D3CF4130510581F680911D
:10124000A8028D7F8093A802CACF933049F4811100
:10125000C6CF4130510519F68091A8028260F2CFC5
:10126000953041F48091E80080FFFCCF2068209306
:10127000E300B5CF963009F0A9C00B8D1C8D22E09C
:101280001092E9001092A4021092A302F2122EC052
:101290001092A2021092A1020E945C031F8299E0A8
:1012A0009983FA8291E09E8390EA98879AEF9987D2
:1012B0002091A3023091A402275F3F4F3C832B83F0
:1012C0008D831092E9001092A4021092A302109351
:1012D000A2020093A10249E050E0BE016F5F7F4F80
:1012E00080E00E946A020E945C0379CF1093A20200
:1012F0000093A1020E944803DC0112960D911C91FB
:101300000115110509F451C1D801ED91FC9104803A
:10131000F581E02DBE016B5E7F4FC80109950097F6
:1013200009F03EC1F80100851185EACFF3E0FF1214
:101330000EC08F89882309F440C0823061F440E8F0
:1013400062E18DE091E00E949810811148CF81E226
:101350008093EB0047CF813029F440E868E084E0D7
:1013600091E0F1CF833099F70E944803DC01129697
:10137000ED90FC908E010F5F1F4F6801E114F104A6
:1013800079F0D701ED91FC910680F781E02DB8014D
:10139000C7010995080F111DF701E084F184EECF14
:1013A000D8011C92F60101900020E9F73197BF01A6
:1013B0006C197D0940E0C601C6CF6EEE70E0FB01FE
:1013C000449150E080E80E946A0209CF973009F406
:1013D000BECF983021F481E08093F10000CF9930A6
:1013E00009F0FDCE837009F0B2CFE1E0F1E081E0D9
:1013F00031E096E32191222371F08093E90030934C
:10140000EB00DF0111972C912093EC009093ED00FD
:101410008F5F873079F78EE78093EA001092EA00B9
:101420008F898093C102DBCE8B8D9C8D1092E90059
:101430001092A4021092A3029093A2028093A102A0
:10144000898D811192C08E899D89913A49F48132AA
:1014500009F07DCF47E050E06BE071E080E0B3CF72
:10146000913209F074CF833269F48F89988DB0E09E
:10147000A0E08093070190930801A0930901B09325
:101480000A01ADCE803269F48091E80082FFFCCF82
:1014900067E08BE091E00E943B038BEF8093E800D4
:1014A0009ECE823209F09BCE8F8980931201EEEF9F
:1014B000FFE7859194918B3F9C4D51F1E0E0F8E07E
:1014C00080910B0190910C01A0910D01B0910E0142
:1014D000803B9440A105B105F1F48091120180FD9B
:1014E0001AC0EE3F8AE0F80789F587E797E791830E
:1014F0008083809160008093A50288E19BE00FB615
:10150000F894A895809360000FBE9093600067CE1A
:10151000EEEFFAE0D5CF808191818737974709F0C8
:101520005ECEA89580916000886180936000809174
:10153000A50280936000EE3F2AE0F20789F08091D7
:10154000FE0A9091FF0A9183808349CE8081918128
:101550008737980751F29093FF0A8093FE0AC5CF10
:101560001092FF0A1092FE0A3ACE0E944803DC0154
:1015700012960D911C910115110509F4E8CED801C0
:10158000ED91FC910190F081E02DBE016B5E7F4FEB
:10159000C8010995811123CEF80100851185EBCF93
:1015A000181619060CF41BCED2CEF1E0FF12BECEF7
:1015B00062EF70E004CF1F93CF93DF93EC01862F8F
:1015C000142F688379834A835B8322E030E03D8374
:1015D0002C8362E00E949D0162E0812F0E949D01A8
:1015E00083E08E831F82188619861A861B861C86C6
:1015F0001D861E861F86188A198A1A8ADF91CF9146
:101600001F910895EF92FF920F931F93CF93DF9353
:10161000CDB7DEB7C659D1090FB6F894DEBF0FBEFD
:10162000CDBF1092C5021092C40288EE93E0A0E0F4
:10163000B0E08093C6029093C702A093C802B09313
:10164000C9028BE391E09093C3028093C2028FEFB3
:101650009FEF9093CF028093CE0243E050E062E090
:1016600070E080ED93E00E94DB0A84E090E09093CC
:10167000EC038093EB031092EE0312E01093ED0362
:1016800046E050E065E070E080EF93E00E94DB0A06
:1016900087E090E090930C0480930B0410920E046A
:1016A00088E080930D0444E150E063E170E080E164
:1016B00094E00E94DB0A85E190E090932C048093F3
:1016C0002B0410922E048EE080932D044FE050E006
:1016D00062E170E080E394E00E94DB0A8EE090E03B
:1016E00090934C0480934B0410924E0484E18093B9
:1016F0004D0449E050E068E070E080E594E00E942D
:10170000DB0A8AE090E090936C0480936B04109263
:101710006E048AE180936D0410929B0310929A03E9
:1017200010929E031092A3031092A2038FEF93E0F6
:101730009093A5038093A4031092A7031092A6038D
:101740009093A9038093A8031092AB031092AA036D
:101750009093AD038093AC031092AF031092AE034D
:101760009093B1038093B0031092B3031092B2032D
:101770009093B5038093B4031092B7031092B6030D
:101780009093B9038093B8031092BB031092BA03ED
:101790009093BD038093BC031092BF031092BE03CD
:1017A0009093C1038093C0031092C3031092C203AD
:1017B0009093C5038093C4031092C7031092C6038D
:1017C0009093C9038093C8031092CB031092CA036D
:1017D0009093CD038093CC0343E04093CE0390E2FB
:1017E00090939D0310929F031092A0031092A10367
:1017F00025E0298381E08A8339E03B832C8351EA09
:101800005D838E8355E85F83488729873A8729E17E
:101810002B878C8729E22D879E8725E12F87188AC1
:1018200025E2298B8A8B25E72B8B8C8B85E98D8B89
:101830009E8B85E58F8B188E85E6898F1A8E81E8C1
:101840008B8F1C8F80EC8D8F8DE190E00E94541166
:101850007C018DE1FE013196D70101900D928A95B0
:10186000E1F787E090E00E9454118C01DC011196B1
:101870001C921E921396FC92EE9212978DE190E0CC
:1018800015969C938E93149716961C920E94EC04C6
:10189000FC01A385B485109709F072C014870387F3
:1018A00085859685D80114962D913C91820F931FC2
:1018B0009687858790919D03892F86958695869535
:1018C000977009F065C080939E0310919E03812F4D
:1018D00090E00E94541190939B0380939A0381E0BF
:1018E00090919F03911101C080E0810F8093CF03FD
:1018F000109281031092800310928303109282034E
:10190000109285031092840310928703109286032D
:10191000109289031092880310928B0310928A030D
:1019200010928D0310928C0310928F0310928E03ED
:1019300010929103109290031092930310929203CD
:1019400010929503109294038FEF9FEF909397035B
:1019500080939603909399038093980390E080E09E
:1019600020919E0328171906A9F0A4F0E0919A038C
:10197000F0919B03E80FF91F10820196F1CFDC0173
:101980008D919C9111970097D1F70D931C9388CF5F
:101990008F5F99CF80E893E09093130380931203B5
:1019A00010921B0310921A03ECE1F3E01192B3E0E2
:1019B000E038FB07D9F78CE193E09093150380930F
:1019C000140384E690E0909317038093160310921B
:1019D000190310921803CA56DF4F0FB6F894DEBFF2
:1019E0000FBECDBFDF91CF911F910F91FF90EF9070
:1019F0000895789484B5826084BD84B5816084BD87
:101A000085B5826085BD85B5816085BD80916E009C
:101A1000816080936E0010928100809181008260CD
:101A2000809381008091810081608093810080910A
:101A3000800081608093800080919100826080931B
:101A4000910080919100816080939100809190003D
:101A50008160809390008091C10084608093C10078
:101A60008091C10082608093C1008091C10081603B
:101A70008093C1008091C30081608093C3008091F6
:101A8000C00082608093C0008091C200816080931A
:101A9000C20080917A00846080937A0080917A00FD
:101AA000826080937A0080917A00816080937A00CE
:101AB00080917A00806880937A001092C10210921F
:101AC000A8021092A7028091D70081608093D7006E
:101AD00080EA8093D80089B5806189BD89B582602C
:101AE00089BD09B400FEFDCF61E070E080E090E0C8
:101AF0000E94FE018091D8008F7C80618093D80085
:101B00008091E000807F8093E0008091E1008E7EF4
:101B10008093E1008DE08093E200559A209A60E086
:101B200080E00E949D0160E081E00E949D0160E0F4
:101B300084E00E949D0160E087E00E949D0160E0DA
:101B400085E10E949D0160E08EE00E949D0160E0C1
:101B50008AE00E949D018FEF9FEF9093CF028093C8
:101B6000CE0281E080939C0380E893E00E941906F6
:101B70000E9430026093AD027093AE028093AF0278
:101B80009093B002E8EE8E2EE3E09E2EA12CB12CB5
:101B900070E0672E70E0772E80E00E947401EC0107
:101BA0008091130190911401C817D90709F45EC000
:101BB00081E090E0209711F490E080E09093140190
:101BC0008093130160E080E893E00E94CB0761E01E
:101BD00080E893E00E94CB070E943002A5019401A7
:101BE0000E94F510CA01B9014AE00E94C00587E5CC
:101BF00091E00E94170681E691E00E94170683E5B6
:101C000091E0209711F08CE491E00E9417068BE69A
:101C100091E00E9417064AE065E070E080E090E005
:101C20000E94C00589E491E00E94B305E5E9F1E076
:101C30008491E6E7F1E01491E7E5F1E004910023F7
:101C4000A9F081110E942801E02FF0E0EE0FFF1FA4
:101C5000E05EFE4FA591B4918FB7F8949C91CD2B87
:101C600009F06AC0109519231C938FBFC0EDD3E013
:101C7000D12CC12C88810E947401F82E8A810E9487
:101C80007401880F991FF82A860155E0000F111F73
:101C90005A95E1F7F801E053FC4F8681F81609F4F4
:101CA00053C08681478150856185728524E0820218
:101CB000C0011124AF2D0F2C000CBB0BA82BB92B8E
:101CC000A95DBE4F8C91082E000C990BAA0BBB0B83
:101CD000840F951FA61FB71F87839087A187B287A0
:101CE0008C819D818230910549F18330910509F401
:101CF00080C0019729F583E0F81222C08781908582
:101D0000A185B28532E0B595A795979587953A95C7
:101D1000D1F783879487A587B6878B899C89AD89FE
:101D2000BE898F8B988FA98FBA8F0E9430026B8BE0
:101D30007C8B8D8B9E8B04C0192B96CFFF20F1F2EC
:101D4000F801E053FC4FF6828B8D0E94740121E074
:101D5000892B09F020E08E8D922F98279F8F2813D2
:101D60002E8FF801E053FC4F4785508961897289B5
:101D700083859485A585B68584179507A607B7073B
:101D80000CF048C083859485A585B6858787908BA0
:101D9000A18BB28B20E080911301909114011D8DD5
:101DA000892B09F01D5F120F8CE791E00E94170646
:101DB000812F0E94040680911403909115030097CF
:101DC00009F447C02091180330911903409116037C
:101DD0005091170324173507E0F5A9014F5F5F4FB6
:101DE0005093190340931803820F931FFC01108333
:101DF00030C0FF2019F0E3E0FE12A2CFF801E0535B
:101E0000FC4F87819085A185B285B595A79597955B
:101E100087957FCF478550896189728983859485AD
:101E2000A585B685481759076A077B0754F483854B
:101E30009485A585B6858787908BA18BB28B21E091
:101E4000AACF83859485A585B6858787908BA18B3E
:101E5000B28B8F8D8823D1F01D8D809113019091CD
:101E60001401892B09F01D5F1E5F8E8D882309F4F4
:101E7000FCC089E991E00E94170680919D03181724
:101E800028F4612F80E893E00E949507FFEFCF1AB6
:101E9000DF0AA09625E0C216D10409F0EBCE81E05E
:101EA0000E9474012091B5023091B6028217930707
:101EB000E1F09093B6028093B502C1E02091130146
:101EC00030911401232B09F4C0E0019709F0D7C029
:101ED0008CEC91E00E94170680919D03C81728F4AE
:101EE0006C2F80E893E00E9495070E9430020091D9
:101EF000B1021091B2022091B3023091B402601B82
:101F0000710B820B930B6536710581059105E0F12C
:101F1000E0911A03F0911B03309709F0BAC0809149
:101F2000180390911903892B29F1E0911403F09182
:101F30001503F0931B03E0931A03C08189EF91E02E
:101F40000E9417068C2F0E94040680911203909124
:101F50001303E0911A03F0911B036081FC01258DAE
:101F6000621710F40E94950764E670E080E090E04C
:101F70000E94FE010E9430026093B1027093B2028F
:101F80008093B3029093B4020E9430022090AD027D
:101F90003090AE024090AF025090B00262197309C7
:101FA0008409950969397A4381059105F0F1C0905A
:101FB000A902D090AA02E090AB02F090AC0288E5B2
:101FC00092E00E9417064AE0C701B6010E94C005D0
:101FD00089E491E00E94B30585E692E00E9417062D
:101FE0000E9430026219730984099509A7019601BC
:101FF0000E94F510CA01B9014AE00E94C00589E4B7
:1020000091E00E94B3050E9430026093AD0270938C
:10201000AE028093AF029093B0021092A902109288
:10202000AA021092AB021092AC028091A902909188
:10203000AA02A091AB02B091AC020196A11DB11D04
:102040008093A9029093AA02A093AB02B093AC0232
:1020500061E070E080E090E00E94FE016114710494
:1020600009F49ACD0E94000093CD82EB91E00E948A
:102070001706612F80E893E00E94CB0707CF82EE1E
:1020800091E00E9417066C2F80E893E00E94CB0736
:102090002CCFC0818EE192E00E9417068C2F0E9407
:1020A0000406E0911A03F0911B03608180911203F2
:1020B000909113030E94CB0780911803909119030C
:1020C000892B01F190E080E02091180330911903F1
:1020D000215031098217930788F42091140330911D
:1020E0001503AC014F5F5F4FF901E40FF51F6081ED
:1020F000820F931FFC016083CA01E6CF309319035E
:102100002093180384E492E00E941706609118035C
:102110007091190390E080E04AE00E94C00589E4D4
:1021200091E00E94B30510921B0310921A0322CF74
:10213000EF92FF920F931F93CF93DF93F82E192FF7
:10214000E62E042F81E0860F880F0E943C0283E078
:102150000E943C02CF2DD12FEC0EFD2EF11CCE158E
:10216000DF05B9F007FF13C0FE0184910E943C0215
:10217000182F80E00E943C02812321968111EFCF2D
:10218000DF91CF911F910F91FF90EF90089588817B
:10219000EDCF81E0F5CF052E97FB1EF400940E9451
:1021A000E21057FD07D00E94F51007FC03D04EF453
:1021B0000C94E21050954095309521953F4F4F4F2C
:1021C0005F4F089590958095709561957F4F8F4FE3
:1021D0009F4F08950E941711A59F900DB49F900DD9
:1021E000A49F800D911D11240895A1E21A2EAA1B0F
:1021F000BB1BFD010DC0AA1FBB1FEE1FFF1FA217B7
:10220000B307E407F50720F0A21BB30BE40BF50BB3
:10221000661F771F881F991F1A9469F7609570953C
:10222000809590959B01AC01BD01CF010895A29FBF
:10223000B001B39FC001A39F700D811D1124911D9A
:10224000B29F700D811D1124911D089597FB072EDB
:1022500016F4009407D077FD09D00E94401107FCC6
:1022600005D03EF4909581959F4F089570956195A6
:102270007F4F0895EE0FFF1F0590F491E02D099414
:10228000AA1BBB1B51E107C0AA1FBB1FA617B7079C
:1022900010F0A61BB70B881F991F5A95A9F78095B8
:1022A0009095BC01CD0108950F931F93CF93DF93B9
:1022B0008230910510F482E090E0E0917204F09198
:1022C000730430E020E0B0E0A0E0309799F42115ED
:1022D000310509F44AC0281B390B24303105D8F5E3
:1022E0008A819B816115710589F1FB01938382834A
:1022F000FE0111C0408151810281138148175907A5
:10230000E0F04817590799F4109761F012960C9372
:10231000129713961C933296CF01DF91CF911F91A4
:102320000F9108950093720410937304F4CF211554
:10233000310551F04217530738F0A901DB019A012A
:10234000BD01DF01F801C1CFEF01F9CF9093730414
:1023500080937204CDCFFE01E20FF31F819391931E
:102360002250310939832883D7CF209170043091CE
:102370007104232B41F420911701309118013093FF
:1023800071042093700420911501309116012115DC
:10239000310541F42DB73EB74091190150911A0112
:1023A000241B350BE0917004F0917104E217F307E0
:1023B000A0F42E1B3F0B2817390778F0AC014E5FB5
:1023C0005F4F2417350748F04E0F5F1F509371047D
:1023D00040937004819391939FCFF0E0E0E09CCF15
:1023E000CF93DF930097E9F0FC01329713821282BA
:1023F000A0917204B0917304ED0130E020E01097D9
:10240000A1F420813181820F931F209170043091BB
:1024100071042817390709F061C0F0937104E09343
:102420007004DF91CF910895EA01CE17DF07E8F538
:102430004A815B819E0141155105B1F7E901FB839A
:10244000EA8349915991C40FD51FEC17FD0761F438
:10245000808191810296840F951FE9019983888379
:10246000828193819B838A83F0E0E0E012968D91D4
:102470009C9113970097B9F52D913C911197CD013F
:102480000296820F931F20917004309171042817D7
:10249000390739F6309751F510927304109272048F
:1024A000B0937104A0937004BCCFD383C2834081E6
:1024B0005181840F951FC817D90761F44E5F5F4F94
:1024C00088819981480F591F518340838A819B815C
:1024D000938382832115310509F0B0CFF093730403
:1024E000E09372049ECFFD01DC01C0CF1382128203
:1024F000D7CFFB01DC0102C001900D92415050404A
:08250000D8F70895F894FFCF0D
:1025080000C18081000000FFFFFFFF00E100000024
:102518000000000100000074048000000000002595
:1025280004A1046304480400FF0100010000FFFF48
:102538000000010001FF0000000000A3038D03C498
:1025480003B9030B04C903E7030D0A005359535495
:10255800454D0043415200205354415455533A20AD
:10256800002020204D6F64653A200020456E636F7F
:1025780064657220636F756E743A200051756575D5
:10258800696E67206120707265737320666F7220B0
:10259800627574746F6E3A20005072657373696E59
:1025A8006720656E636F64657220627574746F6E00
:1025B800200052656C656173696E6720656E636F94
:1025C80064657220627574746F6E20005072657352
:1025D80073696E67206261636B20627574746F6ED5
:1025E800200052656C656173696E67206261636B78
:1025F80020627574746F6E20005072657373696E13
:10260800672074686520627574746F6E2066726FD7
:102618006D207468652071756575653A200052658E
:102628006C656173696E672074686520627574747F
:102638006F6E2066726F6D207468652071756575A0
:10264800653A200053697A65206F662074686520B2
:1026580071756575653A20004C6F6F7020636F75F2
:102668006E743A2000417667206C6F6F7020746931
:0C2678006D6520696E206D733A20000033
:00000001FF
