:100000000C94D4000C94FC000C94FC000C94FC00A8
:100010000C94FC000C94FC000C94FC000C94FC0070
:100020000C94FC000C94FC000C9456080C94C5082D
:100030000C94FC000C94FC000C94FC000C94FC0050
:100040000C94FC000C94FC000C94FC000C94FC0040
:100050000C94FC000C94FC000C94FC000C940C0818
:100060000C94FC000C94FC000C94FC000C94FC0020
:100070000C94FC000C94FC000C94FC000C94FC0010
:100080000C94FC000C94FC000C94FC000C94FC0000
:100090000C94FC000C94FC000C94FC000C94FC00F0
:1000A0000C94FC000C94FC000C94FC00080B000267
:1000B0000202000009040000010202000005240001
:1000C0001001052401010104240206052406000193
:1000D0000705810310004009040100020A00000026
:1000E00007050202400000070583024000000403E8
:1000F000090412010002EF0201404F1B06920001A9
:1001000001020301537061726B46756E005370619A
:10011000726B46756E2050726F204D6963726F006E
:1001200000000000250028002B002E0031000000F8
:100130000000240027002A002D00300000000000ED
:100140002300260029002C002F00040404040403CB
:100150000405020202020403020202020606060667
:10016000060604040202020404040802011040808E
:10017000401020408040800802040180402010028E
:1001800001108010204040200000000200090F00F4
:1001900000030401000C000000000000000000004B
:1001A0000000000000001E0B11241FBECFEFDAE09C
:1001B000DEBFCDBF11E0A0E0B1E0ECE5F2E202C0AD
:1001C00005900D92AE38B107D9F723E0AEE8B1E063
:1001D00001C01D92AC30B207E1F710E0C4EDD0E0F1
:1001E00004C02197FE010E94E40FC33DD107C9F767
:1001F0000E94F40C0C942C110C940000CF92DF920E
:10020000EF92FF920F931F93CF93DF93D901E801F1
:100210006A01F9014217530714F06901FA018823B2
:1002200009F440C0CB016C157D050CF4C6019F019B
:100230008E179F070CF49C01A417B50734F4CF0167
:10024000821B930B9C012C0D3D1D0D2C000CEE0808
:10025000FF08032E000C440B550B2C193D094E09C9
:100260005F09AEEFBFEF0E94940F9F01FF0F440B99
:10027000550B2C193D094E095F090E94750FDA01D3
:10028000C9018F5F9F47A109B1098883998382E0E3
:1002900090E0DF91CF911F910F91FF90EF90DF9051
:1002A000CF90089590E080E0F4CFFC018091C701E9
:1002B000882311F13FB7F89482E08093E900209100
:1002C000F200822F90E01816190614F481E090E0F5
:1002D000882339F0289844E64093C6014091F10004
:1002E0004083222339F02091F200211103C02BE634
:1002F0002093E8003FBF08958FEF9FEF089581504E
:100300008F3008F047C0E82FF0E0E757FE4F0C941D
:10031000E40FA601AA0198019E01A201CA01CA0127
:10032000CA01AD01B301B701BB01C101CA01C501D9
:10033000809180008F778093800008958091800065
:100340008F7DF9CF80918000877FF5CF84B58F773F
:1003500084BD089584B58F7DFBCF809190008F7709
:10036000809390000895809190008F7DF9CF8091C7
:100370009000877FF5CF8091C0008F778093C00079
:1003800008958091C0008F7DF9CF8091C200877F52
:100390008093C2000895CF93DF93282F30E0F901B6
:1003A000E857FE4F8491F901E759FE4FD491F901C6
:1003B000E65BFE4FC491CC23A1F081110E947F0126
:1003C000EC2FF0E0EE0FFF1FE45CFE4FA591B4911F
:1003D000EC91ED2381E090E009F480E0DF91CF9192
:1003E000089580E090E0FACFCF93DF9390E0FC0196
:1003F000E759FE4F2491865B9E4FFC018491882330
:10040000C9F090E0880F991FFC01E25DFE4FA591B5
:10041000B491FC01E05EFE4FC591D49161110DC015
:100420009FB7F8948C91209582238C938881282300
:1004300028839FBFDF91CF910895623051F49FB719
:10044000F8943C91822F809583238C93E8812E2B06
:10045000EFCF8FB7F894EC912E2B2C938FBFEACF70
:100460003FB7F8948091C2019091C301A091C4015B
:10047000B091C50126B5A89B05C02F3F19F0019684
:10048000A11DB11D3FBFBA2FA92F982F8827BC01EE
:10049000CD01620F711D811D911D42E0660F771F16
:1004A000881F991F4A95D1F708958F929F92AF9216
:1004B000BF92CF92DF92EF92FF924B015C010E94BC
:1004C00030026B017C010E9430026C197D098E099B
:1004D0009F09683E734081059105A8F321E0821AC7
:1004E0009108A108B10888EEC80E83E0D81EE11C6F
:1004F000F11C81149104A104B10429F7FF90EF903D
:10050000DF90CF90BF90AF909F908F9008954091D3
:10051000B5015091B6012091B3013091B401421759
:100520005307B4F49091E8009570E1F39091E800DE
:1005300092FD19C08093F1008091B5019091B601B0
:1005400001968F739927892B19F48EEF8093E80019
:100550008091B5019091B60101969093B601809378
:10056000B50181E0089580E00895EF92FF920F9326
:100570001F93CF93DF93F82E192FE62E042F81E0DF
:10058000860F880F0E94870283E00E948702CF2D8A
:10059000D12FEC0EFD2EF11CCE15DF05B9F007FFB3
:1005A00013C0FE0184910E948702182F80E00E94F0
:1005B0008702812321968111EFCFDF91CF911F9187
:1005C0000F91FF90EF9008958881EDCF81E0F5CFF6
:1005D000DF92EF92FF920F931F93CF93DF93D82E6A
:1005E0008A01EB017B01E40EF51ECE15DF0559F003
:1005F000D7FE12C0FE0184910E94870221968111CC
:10060000F4CF0FEF1FEFC801DF91CF911F910F9132
:10061000FF90EF90DF9008958881EECF2FB7F89488
:1006200087708093E9009091E800892F807295FF90
:1006300004C09091F20080E4891B2FBF08957F923F
:100640008F929F92AF92BF92CF92DF92EF92FF92E2
:100650000F931F93CF93DF93C82E8B017A01809164
:10066000C701811110C08FEF9FEFDF91CF911F91D4
:100670000F91FF90EF90DF90CF90BF90AF909F9041
:100680008F907F9008958091B90180FF05C080917F
:10069000E00082608093E000CE2DDF2DD12C8AEF28
:1006A000B82E8C2D8770982E8C2D8072882E8C2DD4
:1006B0008074782E9AE3A92E209719F4DD2009F48E
:1006C00052C08C2D0E940E0381110AC0BA94BB2027
:1006D00051F261E070E080E090E00E945502ECCFC2
:1006E0008C171D0611F00CF08C2F9FB7F894909288
:1006F000E9002091E80025FD02C09FBFDDCF282F33
:1007000030E0C21BD30B882029F08150A0F010925A
:10071000F100FBCFF801C7FC0AC0815050F04191B5
:100720004093F100FACF44914093F100319681500B
:10073000D0F7020F131FDD2021F0A092E800D12C8A
:10074000DCCF8091E80085FD07C0A092E800DD24A1
:10075000D394209791F2F3CF209779F6772069F21E
:10076000A092E800CACF5D9884E68093B801C701E3
:100770007CCF615030F02091F100FC012083019684
:10078000F8CF289884E68093C60108958091AB0144
:1007900081110DC082E08093A70184E08093A801BD
:1007A0001092AA011092A90181E08093AB0187EA1F
:1007B00091E008950F931F93CF93DF931F92CDB7CE
:1007C000DEB782E0898342E450E06CEA70E080E8C2
:1007D0000E94E8020E94C603DC0112960D911C9152
:1007E0000115110589F0D801ED91FC910280F3818A
:1007F000E02DBE016F5F7F4FC801099597FD04C0D2
:10080000F80100851185ECCF89810F90DF91CF91A0
:100810001F910F910895CF93DF93EC018091120106
:10082000882331F083E00E941F031816190634F064
:1008300081E090E09B838A8380E090E0DF91CF911C
:100840000895CF93DF931F92CDB7DEB76983DC01A4
:10085000ED91FC910280F381E02D41E050E0BE017A
:100860006F5F7F4F09950F90DF91CF91089583E0DF
:100870008093E9008091F200882319F08AE3809345
:10088000E800089583E00E940E0390E00895CF935E
:10089000DF931F92CDB7DEB7FC018485958597FD68
:1008A00008C02FEF3FEF358724870F90DF91CF915E
:1008B0000895CE0101960E945501019719F489818E
:1008C00090E0F3CF8FEF9FEFF0CF0F931F93CF9375
:1008D000DF931F92CDB7DEB78C01FC01848595852F
:1008E00097FF0BC0CE0101960E945501019771F44C
:1008F000898190E0F80195878487F8018485958542
:100900000F90DF91CF911F910F9108958FEF9FEF7F
:10091000F1CFFC018485958597FD0BC09FB7F894B6
:1009200082E08093E9008091F2009FBF90E0019601
:1009300008959FB7F89482E08093E9008091F200D7
:100940009FBF90E00895DC01FB0112962C91129755
:10095000848195812817190641F491818081813A1B
:1009600031F49D7F81E0913009F080E0089581327B
:10097000E1F79B3029F482811F968C9381E00895E2
:100980009A3099F7828150968C93F8CFDC01FB0165
:1009900088E4808389E4818384E482831D969C912A
:1009A0001D979F709F5B93831D968D919C9124E072
:1009B000969587952A95E1F78F708F5B848385E004
:1009C0000895EF92FF920F931F93CF93DF93FB0154
:1009D0002081213889F52381223271F5DC011296BC
:1009E0004C91248135814217130631F58C01FC01AD
:1009F000C385D485F12CE12C209791F04C815D8149
:100A00006A817B818E81811180E80E94E8028F3F9C
:100A1000980759F0E80EF91E0990D881C02DECCF47
:100A200081E0D8011F968C93C701DF91CF911F9170
:100A30000F91FF90EF90089590E080E0F6CFCF9374
:100A4000DF93CDB7DEB769970FB6F894DEBF0FBE60
:100A5000CDBFFC01DB018C918F5F8C939E012D5FDC
:100A60003F4F8DE0D9011D928A95E9F729E029834E
:100A700084E08A8391E09D8383E08E832A8721E24C
:100A80002B879C879D879F8722E2288B27E02B8BD3
:100A900025E02C8B8E8B20E430E0388F2F8B998FC4
:100AA00082818B8395858685998B8A8B83818068EB
:100AB0008D8B49E150E0BE016F5F7F4F80E00E9467
:100AC000E80269960FB6F894DEBF0FBECDBFDF9186
:100AD000CF910895CF93DF9380919F01811167C0DB
:100AE00081E0809392018093930128E931E0309373
:100AF00095012093940110929701109296012FE195
:100B000031E030938F0120938E0110929A01109260
:100B1000990110929C0110929B0180939D018093FA
:100B20009E0181EC809398010E94C603FC018181A3
:100B300090919201482F490F5527551F4830510574
:100B40009CF5A281B381109709F52EE831E033833B
:100B500022832081209390018093910180919301C1
:100B6000820F808320919401A22FB09195018A2F4A
:100B7000821B8917C8F481813D91C82FD0E0C050F5
:100B8000DF4F38838F5F8183F2CFD90118962D9183
:100B90003C91199721153105C1F72EE831E01996DE
:100BA0003C932E931897D5CF81E080939F018EE8D8
:100BB00091E0DF91CF9108958F929F92AF92BF9273
:100BC000CF92DF92EF92FF920F931F93CF93DF9319
:100BD000CDB7DEB7ADB6BEB6809167022DB73EB7D2
:100BE000281B31090FB6F8943EBF0FBE2DBF8DB73D
:100BF0009EB701966C01E0903602F12C8091320292
:100C000090913302D601FC019F01281B390B2E1550
:100C10003F051CF421912D93F7CF80913702882353
:100C200059F180912E0290912F0228E097FD09C082
:100C300068E671E00E94D00F6DE270E00E94D00F74
:100C4000262F809130029091310268E097FD08C014
:100C500068E671E00E94D00F6DE270E00E94D00F54
:100C6000F601EE0DFF1D90E1699FB0011124262BC6
:100C70002083F70131967F0186010E0D1F1D209103
:100C80003C0230913D0240913A0250913B0260910A
:100C90001802709119028091380281700E94FE0042
:100CA000E80EF91E86010E0D1F1D209140023091A5
:100CB000410240913E0250913F0260911A027091B0
:100CC0001B0280913802869581700E94FE00E80E1A
:100CD000F91E86010E0D1F1D209144023091450220
:100CE000409142025091430260911C0270911D029A
:100CF0008091380282FB882780F90E94FE00E80E6E
:100D0000F91E86010E0D1F1D2091480230914902E7
:100D1000409146025091470260911E0270911F025D
:100D20008091380283FB882780F90E94FE00E80E3C
:100D3000F91E86010E0D1F1D20914C0230914D02AF
:100D400040914A0250914B02609120027091210221
:100D500080913802829581700E94FE00E80EF91E93
:100D600086010E0D1F1D20915002309151024091BD
:100D70004E0250914F0260912202709123028091A5
:100D8000380285FB882780F90E94FE00E80EF91ED4
:100D900086010E0D1F1D2091540230915502409185
:100DA0005202509153026091260270912702809165
:100DB000390281700E94FE00E80EF91E86010E0DB8
:100DC0001F1D2091580230915902409156025091B6
:100DD0005702609124027091250280913902869514
:100DE00081700E94FE00E80EF91E86010E0D1F1D87
:100DF00020915C0230915D0240915A0250915B0259
:100E000060912802709129028091390282FB882723
:100E100080F90E94FE00E80EF91E86010E0D1F1DCE
:100E2000209160023091610240915E0250915F0218
:100E300060912A0270912B028091390283FB8827EE
:100E400080F90E94FE008E0D9F1D8601080F191F5C
:100E500020916402309165024091620250916302D8
:100E600060912C0270912D028091390282958170DF
:100E70000E94FE000E946A054C0140916702809129
:100E8000660250E07A01FFEFEF1AFF0A2DB73EB776
:100E90002E193F090FB6F8943EBF0FBE2DBF0DB7F8
:100EA0001EB70F5F1F4FEDB7FEB78183B601C801B4
:100EB00001960E942311F4018381A701B801806487
:100EC0000E941F030FB6F894BEBE0FBEADBEDF91E9
:100ED000CF911F910F91FF90EF90DF90CF90BF9037
:100EE000AF909F908F90089590913502891708F5E3
:100EF000E82FE695E695E69520913202309133028F
:100F0000E20FF32FF11D282F277081E090E0A0E081
:100F1000B0E004C0880F991FAA1FBB1F2A95D2F703
:100F200080959081892380838091340281110C9473
:100F3000DC050895E82FE695E695E69520913202C6
:100F400030913302E20FF32FF11D282F277081E03B
:100F500090E0A0E0B0E004C0880F991FAA1FBB1F5B
:100F60002A95D2F72081822B8083809134028111CF
:100F70000C94DC050895FC0101900020E9F73197FD
:100F8000AF01481B590BBC0188EC91E00C940B0499
:100F90008F929F92AF92BF920F931F93CF93DF9345
:100FA000CDB7DEB7A1970FB6F894DEBF0FBECDBFA9
:100FB00019A2423008F44AE08E010F5D1F4F842EC3
:100FC000912CB12CA12CA50194010E949F0FE62F1A
:100FD000B901CA01EA30F4F4E05DD801EE938D0165
:100FE000232B242B252B79F790E080E0109719F024
:100FF000CD010E94BB07A1960FB6F894DEBF0FBECD
:10100000CDBFDF91CF911F910F91BF90AF909F9077
:101010008F900895E95CE1CF1F920F920FB60F9267
:1010200011242F933F938F939F93AF93BF938091FE
:10103000BE019091BF01A091C001B091C10130915A
:10104000BD0123E0230F2D3758F50196A11DB11DD9
:101050002093BD018093BE019093BF01A093C00176
:10106000B093C1018091C2019091C301A091C401CC
:10107000B091C5010196A11DB11D8093C20190934D
:10108000C301A093C401B093C501BF91AF919F91DB
:101090008F913F912F910F900FBE0F901F90189539
:1010A00026E8230F0296A11DB11DD2CF1F920F92E9
:1010B0000FB60F9211248F939F938091E10090912E
:1010C000E100937F9093E10083FF0FC01092E9004D
:1010D00091E09093EB001092EC0092E39093ED007E
:1010E0001092C70198E09093F00082FF22C093E035
:1010F0009093E9009091F200992319F09AE390936C
:10110000E8009091B801992341F09091B801915075
:101110009093B801911101C05D9A9091C6019923F5
:1011200041F09091C60191509093C601911101C078
:10113000289A84FF18C08091E2008E7E816080939F
:10114000E2008091E1008F7E8093E1008091B901FF
:101150008E7E80618093B9019F918F910F900FBE19
:101160000F901F90189580FFF7CF8091E2008E7E40
:1011700080618093E2008091E1008E7E8093E100A7
:101180008091B9018E7E8160E5CF1F920F920FB6DC
:101190000F921124CF92DF92EF92FF920F931F9341
:1011A0002F933F934F935F936F937F938F939F936F
:1011B000AF93BF93EF93FF93CF93DF93CDB7DEB79A
:1011C0006C97DEBFCDBF1092E9008091E80083FFED
:1011D00025C068E0CE0145960E94B90382EF809356
:1011E000E8008D8987FF39C09091E80090FFFCCF1F
:1011F000982F907609F034C19E894F89588D2F8998
:10120000F88C911131C0803861F58091BA018093DA
:10121000F1001092F1008EEF8093E8006C960FB60B
:10122000F894DEBF0FBECDBFDF91CF91FF91EF915C
:10123000BF91AF919F918F917F916F915F914F91EE
:101240003F912F911F910F91FF90EF90DF90CF90E2
:101250000F900FBE0F901F9018959EEF9093E8008F
:10126000C7CF1092F100D5CF913059F48111D3CF6F
:101270004130510581F68091BA018D7F8093BA018A
:10128000CACF933049F48111C6CF4130510519F6C8
:101290008091BA018260F2CF953041F48091E800EC
:1012A00080FFFCCF20682093E300B5CF963009F093
:1012B000A9C00B8D1C8D22E01092E9001092B6019E
:1012C0001092B501F2122EC01092B4011092B30127
:1012D0000E94DA031F8299E09983FA8291E09E834B
:1012E00090EA98879AEF99872091B5013091B601DD
:1012F000275F3F4F3C832B838D831092E900109230
:10130000B6011092B5011093B4010093B30149E006
:1013100050E0BE016F5F7F4F80E00E94E8020E94B4
:10132000DA0379CF1093B4010093B3010E94C6038E
:10133000DC0112960D911C910115110509F451C1A2
:10134000D801ED91FC910480F581E02DBE016B5E2A
:101350007F4FC8010995009709F03EC1F80100854B
:101360001185EACFF3E0FF120EC08F89882309F4BC
:1013700040C0823061F440E862E18DE091E00E947B
:10138000B502811148CF81E28093EB0047CF8130D5
:1013900029F440E868E084E091E0F1CF833099F7E8
:1013A0000E94C603DC011296ED90FC908E010F5F47
:1013B0001F4F6801E114F10479F0D701ED91FC9120
:1013C0000680F781E02DB801C7010995080F111DAE
:1013D000F701E084F184EECFD8011C92F601019070
:1013E0000020E9F73197BF016C197D0940E0C60183
:1013F000C6CF6EEE70E0FB01449150E080E80E94A1
:10140000E80209CF973009F4BECF983021F481E08B
:101410008093F10000CF993009F0FDCE837009F080
:10142000B2CFE1E0F1E081E031E096E321912223C7
:1014300071F08093E9003093EB00DF0111972C915C
:101440002093EC009093ED008F5F873079F78EE763
:101450008093EA001092EA008F898093C701DBCE67
:101460008B8D9C8D1092E9001092B6011092B501FF
:101470009093B4018093B301898D811192C08E89BC
:101480009D89913A49F4813209F07DCF47E050E0DF
:101490006BE071E080E0B3CF913209F074CF83321A
:1014A00069F48F89988DB0E0A0E080930701909354
:1014B0000801A0930901B0930A01ADCE803269F40E
:1014C0008091E80082FFFCCF67E08BE091E00E9412
:1014D000B9038BEF8093E8009ECE823209F09BCE59
:1014E0008F8980931201EEEFFFE7859194918B3FF6
:1014F0009C4D51F1E0E0F8E080910B0190910C01DE
:10150000A0910D01B0910E01803B9440A105B10561
:10151000F1F48091120180FD1AC0EE3F8AE0F807D5
:1015200089F587E797E791838083809160008093B6
:10153000B70188E19BE00FB6F894A895809360000E
:101540000FBE9093600067CEEEEFFAE0D5CF8081BA
:1015500091818737974709F05ECEA895809160000A
:101560008861809360008091B70180936000EE3FB6
:101570002AE0F20789F08091FE0A9091FF0A918398
:10158000808349CE808191818737980751F290936B
:10159000FF0A8093FE0AC5CF1092FF0A1092FE0A3E
:1015A0003ACE0E94C603DC0112960D911C910115E2
:1015B000110509F4E8CED801ED91FC910190F0817C
:1015C000E02DBE016B5E7F4FC8010995811123CECE
:1015D000F80100851185EBCF181619060CF41BCE07
:1015E000D2CEF1E0FF12BECE62EF70E004CF1F93C7
:1015F000CF93DF93EC01862F142F688379834A837E
:101600005B8322E030E03D832C8362E00E94F401A2
:1016100062E0812F0E94F40183E08E831F8218868E
:1016200019861A861B861C861D861E861F86188AAA
:10163000198A1A8ADF91CF911F910895EF92FF9234
:101640000F931F93CF93DF93CDB7DEB7C659D10960
:101650000FB6F894DEBF0FBECDBF1092CB01109233
:10166000CA0188EE93E0A0E0B0E08093CC019093B3
:10167000CD01A093CE01B093CF018BE391E0909385
:10168000C9018093C8018FEF9FEF9093D50180939C
:10169000D40143E050E062E070E088E692E00E940E
:1016A000F70A84E090E09093840280938302109282
:1016B000860212E01093850246E050E065E070E09B
:1016C00088E892E00E94F70A87E090E09093A402F5
:1016D0008093A3021092A60288E08093A50244E1C1
:1016E00050E063E170E088EA92E00E94F70A85E149
:1016F00090E09093C4028093C3021092C6028EE0E1
:101700008093C5024FE050E062E170E088EC92E027
:101710000E94F70A8EE090E09093E4028093E30247
:101720001092E60284E18093E50249E050E068E02F
:1017300070E088EE92E00E94F70A8AE090E09093D1
:10174000040380930303109206038AE18093050348
:1017500010923302109232021092360210923B0223
:1017600010923A028FEF93E090933D0280933C02F7
:1017700010923F0210923E029093410280934002E9
:1017800010924302109242029093450280934402C9
:1017900010924702109246029093490280934802A9
:1017A00010924B0210924A0290934D0280934C0289
:1017B00010924F0210924E02909351028093500269
:1017C0001092530210925202909355028093540249
:1017D0001092570210925602909359028093580229
:1017E00010925B0210925A0290935D0280935C0209
:1017F00010925F0210925E029093610280936002E9
:1018000010926302109262029093650280936402C8
:1018100043E04093660290E29093350210923702C3
:10182000109238021092390225E0298381E08A83E0
:1018300039E03B832C8351EA5D838E8355E85F83D7
:10184000488729873A8729E12B878C8729E22D87CA
:101850009E8725E12F87188A25E2298B8A8B25E729
:101860002B8B8C8B85E98D8B9E8B85E58F8B188ED2
:1018700085E6898F1A8E81E88B8F1C8F80EC8D8F87
:101880008DE190E00E94FE0F7C018DE1FE0131961A
:10189000D70101900D928A95E1F787E090E00E94D0
:1018A000FE0F8C01DC0111961C921E921396FC9285
:1018B000EE9212978DE190E015969C938E9314977B
:1018C00016961C920E946A05FC01A385B4851097A8
:1018D00009F072C01487038785859685D801149610
:1018E0002D913C91820F931F9687858790913502A9
:1018F000892F869586958695977009F065C08093A7
:10190000360210913602812F90E00E94FE0F9093D4
:1019100033028093320281E090913702911101C02D
:1019200080E0810F809367021092190210921802D2
:1019300010921B0210921A0210921D0210921C02A9
:1019400010921F0210921E02109221021092200289
:101950001092230210922202109225021092240269
:101960001092270210922602109229021092280249
:1019700010922B0210922A0210922D0210922C0229
:101980008FEF9FEF90932F0280932E02909331025E
:101990008093300290E080E02091360228171906EB
:1019A000A9F0A4F0E0913202F0913302E80FF91FA0
:1019B00010820196F1CFDC018D919C9111970097D7
:1019C000D1F70D931C9388CF8F5F99CFCA56DF4F05
:1019D0000FB6F894DEBF0FBECDBFDF91CF911F9140
:1019E0000F91FF90EF900895789484B5826084BD44
:1019F00084B5816084BD85B5826085BD85B5816013
:101A000085BD80916E00816080936E001092810090
:101A1000809181008260809381008091810081604B
:101A2000809381008091800081608093800080910C
:101A300091008260809391008091910081608093F9
:101A40009100809190008160809390008091C1000E
:101A500084608093C1008091C10082608093C10046
:101A60008091C10081608093C1008091C30081603A
:101A70008093C3008091C00082608093C0008091F9
:101A8000C20081608093C20080917A00846080935C
:101A90007A0080917A00826080937A0080917A0047
:101AA000816080937A0080917A00806880937A00C8
:101AB0001092C7011092BA011092B9018091D7001B
:101AC00081608093D70080EA8093D80089B58061D7
:101AD00089BD89B5826089BD09B400FEFDCF61E092
:101AE00070E080E090E00E9455028091D8008F7CE9
:101AF00080618093D8008091E000807F8093E00037
:101B00008091E1008E7E8093E1008DE08093E20081
:101B1000559A209A60E080E00E94F40160E081E044
:101B20000E94F40160E084E00E94F40160E087E03C
:101B30000E94F40160E085E10E94F40160E08EE023
:101B40000E94F40160E08AE00E94F4018FEF9FEFB1
:101B50009093D5018093D40181E0809334020E9458
:101B6000DC05E8EE8E2EE3E09E2EA12CB12C67E57D
:101B7000662E61E0762E70E0C72E70E0D72E80E0F2
:101B80000E94CB0120911301309114018217930719
:101B900009F467C021E030E0892B11F430E020E047
:101BA000309314012093130180E00E94740781E0B8
:101BB0000E9474072FB7F8946091BE017091BF0125
:101BC0008091C0019091C1012FBFA50194010E9495
:101BD0009F0FCA01B9014AE00E94C80784E591E05D
:101BE0000E94BB078EE591E00E94BB07C0911301E4
:101BF000D09114018DE491E0C130D10511F089E458
:101C000091E00E94BB078CE791E00E94BB074AE08D
:101C100065E070E080E090E00E94C80789E791E00D
:101C20000E94BB07E5E9F1E08491E6E7F1E0149159
:101C3000F30104910023A9F081110E947F01E02F9C
:101C4000F0E0EE0FFF1FE05EFE4FA591B4919FB74D
:101C5000F8948C91219709F473C0109518231C9364
:101C60009FBFC8E6D2E0F12CE12C88810E94CB0115
:101C7000182F8A810E94CB01880F991F812B870121
:101C800045E0000F111F4A95E1F7F801E859FD4FB3
:101C90009681891709F45CC026814781508561854A
:101CA000728594E0290290011124A82F082E000CBF
:101CB000BB0BA22BB32BA95DBE4F2C90022C000CAA
:101CC000330844085508420D531D641D751D478394
:101CD0005087618772872C813D812230310591F1D7
:101CE0002330310509F485C02130310569F5833091
:101CF00059F5478150856185728522E07595679514
:101D0000579547952A95D1F74387548765877687F6
:101D10004B895C896D897E894F8B588F698F7A8F4B
:101D20009FB7F8944091BE015091BF016091C001EE
:101D30007091C1019FBF4B8B5C8B6D8B7E8B04C000
:101D4000182B8DCF8823A9F2F801E859FD4F86831F
:101D50008B8D0E94CB0121E0892B09F020E08E8D34
:101D6000922F98279F8F28132E8FF801E859FD4F47
:101D7000478550896189728983859485A585B68553
:101D800084179507A607B7070CF044C08385948590
:101D9000A585B6858787908BA18BB28B10E000E07C
:101DA00080911301909114015D8C892B11F0E3E077
:101DB0005E0E500E80913502581618F4852D0E9443
:101DC0009A076AE070E080E090E00E945502852D5D
:101DD0000E94740788E691E00E94BB07B80190E07A
:101DE00080E04AE00E94C80789E791E00E94BB07B3
:101DF00031C0882319F0833009F0A6CFF801E859E3
:101E0000FD4F47815085618572857595679557951A
:101E100047957ACF478550896189728983859485F2
:101E2000A585B685481759076A077B075CF4838543
:101E30009485A585B6858787908BA18BB28B01E0B1
:101E400010E0AECF83859485A585B6858787908B76
:101E5000A18BB28B8F8D882391F08D8D20911301F2
:101E600030911401232B09F08D5F8E5F9E8D992395
:101E7000B1F190913502891710F40E949A07FFEF93
:101E8000EF1AFF0AA09685E0E816F10409F0EDCEFE
:101E900081E00E94CB019C018091BB019091BC012B
:101EA00028173907A9F03093BC012093BB0181E0CA
:101EB0004091130150911401452B09F480E0213029
:101EC000310581F490913502891710F40E949A0728
:101ED000C114D10409F453CE0E94000048CE0E94E0
:101EE0007407CDCF0E947407F3CF052E97FB1EF425
:101EF00000940E948C0F57FD07D00E949F0F07FC93
:101F000003D04EF40C948C0F50954095309521954C
:101F10003F4F4F4F5F4F0895909580957095619515
:101F20007F4F8F4F9F4F08950E94C10FA59F900D27
:101F3000B49F900DA49F800D911D11240895A1E2DE
:101F40001A2EAA1BBB1BFD010DC0AA1FBB1FEE1F33
:101F5000FF1FA217B307E407F50720F0A21BB30B7E
:101F6000E40BF50B661F771F881F991F1A9469F7FA
:101F700060957095809590959B01AC01BD01CF0156
:101F80000895A29FB001B39FC001A39F700D811D52
:101F90001124911DB29F700D811D1124911D089572
:101FA00097FB072E16F4009407D077FD09D00E9406
:101FB000EA0F07FC05D03EF4909581959F4F089558
:101FC000709561957F4F0895EE0FFF1F0590F49176
:101FD000E02D0994AA1BBB1B51E107C0AA1FBB1F20
:101FE000A617B70710F0A61BB70B881F991F5A95A5
:101FF000A9F780959095BC01CD0108950F931F938B
:10200000CF93DF938230910510F482E090E0E0916D
:102010000A03F0910B0330E020E0B0E0A0E030973D
:1020200099F42115310509F44AC0281B390B2430D5
:102030003105D8F58A819B816115710589F1FB0114
:1020400093838283FE0111C04081518102811381FB
:1020500048175907E0F04817590799F4109761F0AD
:1020600012960C93129713961C933296CF01DF9120
:10207000CF911F910F91089500930A0310930B03C2
:10208000F4CF2115310551F04217530738F0A9015B
:10209000DB019A01BD01DF01F801C1CFEF01F9CFEA
:1020A00090930B0380930A03CDCFFE01E20FF31F41
:1020B000819391932250310939832883D7CF20917E
:1020C000080330910903232B41F42091170130912B
:1020D00018013093090320930803209115013091D2
:1020E00016012115310541F42DB73EB74091190174
:1020F00050911A01241B350BE0910803F09109035C
:10210000E217F307A0F42E1B3F0B2817390778F0CE
:10211000AC014E5F5F4F2417350748F04E0F5F1F2D
:102120005093090340930803819391939FCFF0E06C
:10213000E0E09CCFCF93DF930097E9F0FC0132976A
:1021400013821282A0910A03B0910B03ED0130E0DB
:1021500020E01097A1F420813181820F931F2091FC
:102160000803309109032817390709F061C0F0937B
:102170000903E0930803DF91CF910895EA01CE1798
:10218000DF07E8F54A815B819E0141155105B1F7F2
:10219000E901FB83EA8349915991C40FD51FEC17DC
:1021A000FD0761F4808191810296840F951FE901FA
:1021B00099838883828193819B838A83F0E0E0E026
:1021C00012968D919C9113970097B9F52D913C91A2
:1021D0001197CD010296820F931F20910803309131
:1021E00009032817390739F6309751F510920B0378
:1021F00010920A03B0930903A0930803BCCFD383C2
:10220000C28340815181840F951FC817D90761F49B
:102210004E5F5F4F88819981480F591F51834083DA
:102220008A819B81938382832115310509F0B0CF88
:10223000F0930B03E0930A039ECFFD01DC01C0CFB6
:1022400013821282D7CFFB01DC0102C001900D92F4
:0C22500041505040D8F70895F894FFCF9B
:10225C0000C18081000000FFFFFFFF00E1000000D3
:10226C00000000010000000C03800000000000A32F
:10227C00041F05E104C60400FF0100010000FFFF7C
:10228C000000010001FF000000000021040B0442CB
:10229C0004370489044704650443415200535953DD
:1022AC0054454D00205354415455533A200020209E
:1022BC00204D6F64653A2000456E636F6465722033
:1022CC00616374696F6E3A20000D0A0020456E63DD
:0E22DC006F64657220636F756E743A200000A7
:00000001FF
